:100200000C9451010C9479010C9479010C947901AE
:100210000C9479010C9479010C9479010C94790176
:100220000C9479010C9479010C9479010C94790166
:100230000C9479010C9479010C9479010C94790156
:100240000C9479010C9479010C9479010C94790146
:100250000C9479010C9479010C9479010C94790136
:100260000C9479010C9479010C9479010C94790126
:100270000C9479010C9479010C9479010C94790116
:100280000C9479010C9479010C9479010C94790106
:100290000C94FA040C94CC040C94A6040C947901EC
:1002A0005E0511241FBECFEFCDBFDFE3DEBF28E226
:1002B000A4E0B8E201C01D92A93FB207E1F718E23D
:1002C000A0E0B8E2E5E2F2E102C005900D92A430B0
:1002D000B107D9F711E0C1E5D1E004C02197FE01D3
:1002E0000E949408C035D107C9F70E9493050C9469
:1002F0009A080C940001AF92BF92CF92DF92EF92D6
:10030000FF920F931F93CF93DF936C017B018B01BF
:10031000040F151FEB015E01AE18BF08C017D1070F
:1003200059F06991D601ED91FC910190F081E02D99
:10033000C6010995892B79F7C501DF91CF911F91EE
:100340000F91FF90EF90DF90CF90BF90AF90089506
:10035000FC0154894589252F30E0842F90E0821BD1
:10036000930B541710F0CF96089501970895FC0150
:1003700092898389981761F0A389AE0FBF2FB11DB1
:1003800059968C9193899F5F9F73938B90E008950A
:100390008FEF9FEF0895FC0192898389981731F0C0
:1003A0008389E80FF11D818D90E008958FEF9FEF15
:1003B0000895FC0192892389892F90E0805C9F4FEA
:1003C000821B91098F7399270895CF93DF93EC01D6
:1003D000E881F9810680F781E02D0995EC85FD859E
:1003E00086818F738683EC85FD8585818F758583F6
:1003F0008B898A8B198ADF91CF910895CF93DF93F0
:10040000FC0194898589C485D585981306C08D81A2
:100410008F7D8D83DF91CF910895A589AE0FBF2F7A
:10042000B11DA75ABF4F2C91858990E001968F731B
:100430009927858B80E48C83A485B58512962C93AF
:10044000948985899813E6CFA485B58515968C91F6
:1004500015978F7D15968C9387898823D9F2808D87
:1004600080931301178AD6CFDC011C96ED91FC9185
:100470000FB607FE03C0258125FD04C0248125FD9C
:100480000C94FE010895EF92FF920F931F93CF9368
:10049000DF93EC0181E0898B9C898D8998131CC0C6
:1004A000AC85BD8514968C91149785FF15C0129666
:1004B0006C93AC85BD8580E414968C93EC85FD85AA
:1004C00085818F7D858381E090E0DF91CF911F91C1
:1004D0000F91FF90EF9008958091110180FF08C067
:1004E00080911301888F8E898093130181E08F8B17
:1004F000F62E0C8910E00F5F1F4F0F731127E02EAF
:100500008D898E1104C0CE010E943402F9CFEC898E
:10051000EC0FFD2FF11DE75AFF4FF0820C8BEC859D
:10052000FD8585818062CECFCF93DF93FC01218949
:100530002223C9F0EC018091110180FF08C0809155
:100540001301808F86898093130181E0878BEC856E
:10055000FD85858185FD03C0848186FD04C0CE01B3
:100560000E943402F4CFDF91CF91089581E0089585
:10057000282F30E0F901ED54FE4A40814F3F09F445
:1005800054C0893258F4F901E85CFE4AE081EE2358
:1005900029F0E130A1F010F0E63018F1F901E6574A
:1005A000FE4AE081A0E2EA9FF0011124FC5F808115
:1005B000842341F161157105F1F446830895E091BA
:1005C000010AD901AF59BE4A5C915C5F81E090E0BD
:1005D00001C0880F5A95EAF780958E238093010A0F
:1005E000DDCF80E1E89FF0011124E05AF54F8181D1
:1005F0008F7E8183D3CF6230710511F447830895D4
:10060000458308952F593E4AD9018C91309771F056
:100610008F3F61F07096E80FF11D9FB7F8948081CD
:10062000672B39F4877F80839FBF0895F0E0E0E077
:10063000F4CF8860F8CFCF93DF9390E0FC01ED54C6
:10064000FE4A20812F3F69F0FC01E657FE4AE08117
:1006500030E2E39FF0011124FC5F6130710521F469
:100660002183DF91CF9108958F599E4AEC01A88193
:10067000AF3F69F0CF014096A80FB92FB11D9FB7CA
:10068000F89422838C9188608C939FBFEACFB0E06E
:10069000A0E0F5CFCF92DF92EF92FF920F931F93DE
:1006A000CF93DF93EC016A017B01022F89898823B4
:1006B00039F0E881F9810288F389E02DCE010995AE
:1006C00098898091E205892B8093E2051FB7F89401
:1006D00060E070E281EA97E0A70196010E941D08A0
:1006E00069017A018FEFC81AD80AE80AF80AF69465
:1006F000E794D794C794EC85FD8586818D7F8683AA
:10070000EC85FD8586818683198AA09123110A2EA6
:10071000000CBB0BA70196010E948C0820E034E07E
:1007200040E050E00E946D08EC85FD85C20ED31EAE
:10073000E41EF51EC086D186EC85FD850783EC8519
:10074000FD858681806C8683EC85FD85858180684A
:1007500085838E85893220F462E070E00E941B035D
:100760008F85893220F461E070E00E94B8028F85A5
:10077000893220F461E070E00E941B031FBFDF910B
:10078000CF911F910F91FF90EF90DF90CF90089540
:10079000CF93DF938FB7F89420910A2830910B28DC
:1007A00040910C2850910D28E091BA0A9091B60A18
:1007B00090FF06C02F5F3F4F4F4F5F4FE091BA0A47
:1007C0008FBFA0911428B0911528C0911228D09104
:1007D00013280E943F08EC9F9001ED9F300D1124DB
:1007E000620F731F811D911DDF91CF9108952FB767
:1007F000F8946091062870910728809108289091BC
:1008000009282FBF0895DC01ED91FC910088F18942
:10081000E02D23E030E00994FC0101900020E9F78D
:100820003197AF01481B590BBC018AE198E20C9447
:100830007B018F929F92AF92BF920F931F93CF93A2
:10084000DF93CDB7DEB7A197CDBFDEBF19A242308F
:1008500008F44AE08E010F5D1F4F842E912CB12CBD
:10086000A12CA50194010E941D08E62FB901CA011F
:10087000EA30DCF4E05DD801EE938D01232B242BCC
:10088000252B79F790E080E0109719F0CD010E94B8
:100890000C04A196CDBFDEBFDF91CF911F910F91C8
:1008A000BF90AF909F908F900895E95CE4CF1F9325
:1008B000CF93DF9300D000D0CDB7DEB78AE198E2C6
:1008C0000E94B7018AE198E20E94B70110E08A33E2
:1008D00079F0E1E0F0E0EC0FFD1FE10FF11D17FDF5
:1008E000FA9580831F5F8AE198E20E94B701EFCFFB
:1008F000CE0101960E94F707182F8AE198E20E9424
:10090000B701282F2053330BB9012230310528F4C9
:10091000193218F4812F0E94B8028AE198E20E94ED
:10092000B7018A3011F08D30C1F78AE198E20E9458
:10093000CB018A3021F48AE198E20E94B701249623
:10094000CDBFDEBFDF91CF911F9108951F920F920F
:100950000FB60F9211242F933F934F935F936F9392
:100960007F938F939F93AF93BF93EF93FF938AE10E
:1009700098E20E94FE01FF91EF91BF91AF919F918C
:100980008F917F916F915F914F913F912F910F9038
:100990000FBE0F901F9018951F920F920FB60F92D7
:1009A00011242F938F939F93EF93FF93E091262829
:1009B000F0912728818181FD1BC0908180912C2896
:1009C0008F5F8F7320912D28821741F0E0912C28A2
:1009D000F0E0E65EF74D918F80932C28FF91EF9128
:1009E0009F918F912F910F900FBE0F901F90189590
:1009F0008081F4CF1F920F920FB60F9211242F9384
:100A00003F934F935F936F937F938F939F93AF9396
:100A1000BF93409106285091072860910828709153
:100A20000928809104289091052820911028309160
:100A30001128420F531F611D711D20910E28309106
:100A40000F28820F931F883E23E0920730F0885EC4
:100A500093404F5F5F4F6F4F7F4F80930428909379
:100A60000528409306285093072860930828709320
:100A7000092880910A2890910B28A0910C28B09108
:100A80000D280196A11DB11D80930A2890930B2873
:100A9000A0930C28B0930D2881E08093B60ABF91F3
:100AA000AF919F918F917F916F915F914F913F9106
:100AB0002F910F900FBE0F901F901895EAE1F8E26A
:100AC0001282138288EE93E0A0E0B0E084839583E5
:100AD000A683B78380EE91E58083918380E698E0DA
:100AE000848795878AE186878BE1878780E4808B7E
:100AF000128A138A148A158A86E2868B178A108EC8
:100B0000E3EBF8E2168217821086118612861386AE
:100B10001486158616861786108A118A128A138AF9
:100B2000148A158A089588ED90E084BF909361003F
:100B300080E094E2A4EFB0E0809300289093012835
:100B4000A0930228B09303288091020686608093C8
:100B50000206809100068160809300068091020663
:100B60008F7C809302068091A0008F788093A000F4
:100B7000809102068061809302061092E20581E076
:100B80008093E40583E08093010A8FEF90E08093E7
:100B9000260A9093270A80E890E08093380A909381
:100BA000390A80933A0A90933B0A80933C0A9093C7
:100BB0003D0A8BE08093000A8091E5058160809377
:100BC000E5058091E50582608093E505E0E8FAE0BF
:100BD00037E02FEF90E885E0318324879587808385
:100BE0007096E03C4AE0F407B9F780E094E0809327
:100BF00014289093152880911428909115282FEF90
:100C000030E0B9010E9459086093122870931328AC
:100C10008091142890911528E8EEF3E0BF010E941E
:100C2000590860931028709311288091142890918E
:100C30001528BF010E94590880930E2890930F2811
:100C40002093BC0A3093BD0A8091B50A81608093DD
:100C5000B50A84E08093B00A8091B00A81608093E5
:100C6000B00A789461E070E08CE10E941B0361E0BF
:100C700070E08CE10E94B80261E070E08DE10E94BA
:100C80001B0361E070E08DE10E94B80261E070E05A
:100C900083E20E941B0361E070E083E20E94B802DD
:100CA00061E070E08EE10E941B0361E070E08EE184
:100CB0000E94B8021092F5281092F6281092F72898
:100CC0001092F8281092B5281092B6281092B728E2
:100CD0001092B8280E94F7036B017C014B015C0164
:100CE00058EB850E5BE0951EA11CB11C0E94F7031A
:100CF0006C157D058E059F0528F086169706A806BB
:100D0000B906A0F70E94C8036B017C0120E4C20E63
:100D100022E4D21E2FE0E21EF11C30E4C31632E4BE
:100D2000D3063FE0E306F10438F40E94C803C61678
:100D3000D706E806F906C8F30E94C8036C157D05BE
:100D40008E059F05C8F340E052EC61E070E08AE157
:100D500098E20E9403040E94F7036093B528709301
:100D6000B6288093B7289093B82886EF91E50E9423
:100D70000C040E94F7036B017C014B015C014AE00B
:100D8000840E911CA11CB11C0E94F7036C157D05FB
:100D90008E059F0528F086169706A806B906A0F7C7
:100DA00081E08093C9280E94F7036093B52870936F
:100DB000B6288093B7289093B82887E092E50E94E0
:100DC0000C04C0E0D0E084EF882E99249394A12CE9
:100DD000B12C0E94F703672B682B692B09F4F0C034
:100DE0000E94F703C0901628D0901728E09018288A
:100DF000F09019286C157D058E059F0508F4EEC04E
:100E0000C0901628D0901728E0901828F090192844
:100E10009B01AC012C193D094E095F0969017A015A
:100E20003AEFC316D104E104F10408F4D1C0609391
:100E30001628709317288093182890931928809269
:100E4000C1289092C228A092C328B092C4281092C0
:100E5000C5281092C6281092C7281092C8288091E1
:100E6000B9289091BA28A091BB28B091BC28809352
:100E7000BD289093BE28A093BF28B093C0280E949D
:100E8000F7036093B9287093BA288093BB28909396
:100E9000BC288AE198E20E94CB01843611F40E94BA
:100EA00057040E94F7036093B5287093B628809387
:100EB000B7289093B8280E94F7036B017C018EE05D
:100EC00092E50E940C044AE061E070E080E090E06E
:100ED0000E94190485E192E50E940C044AE0C701D2
:100EE000B6010E94190487E192E50E940C048091EA
:100EF000B9289091BA28A091BB28B091BC28A7012D
:100F00009601281B390B4A0B5B0BCA01B9014AE059
:100F10000E94190487E192E50E940C046091B928AF
:100F20007091BA288091BB289091BC28C090BD28B0
:100F3000D090BE28E090BF28F090C0286C197D09A1
:100F40008E099F094AE00E94190489E192E50E94F6
:100F50000C040E94F7034AE00E9419048BE192E519
:100F60000E940C0482E292E50E940C040E94F703A6
:100F70002B013C017C016B0135E0C30ED11CE11C4F
:100F8000F11C0E94F703641575058605970528F086
:100F9000C616D706E806F906A0F78AE198E20E948D
:100FA000CB01843611F40E9457040E94F70360932A
:100FB000B9287093BA288093BB289093BC2808C0A6
:100FC0000E94F703623071058105910508F008CF92
:100FD000209709F4FECE0E940000FBCE60931628F5
:100FE00070931728809318289093192809CFFC0133
:100FF00088279927E89421912032E9F3293010F0CD
:101000002E30C8F32B3241F02D3239F4689404C0ED
:101010000E941508820F911D219120532A30C0F3A0
:101020001EF4909581959F4F08957AE0979F902D9B
:10103000879F802D910D11240895A1E21A2EAA1BDD
:10104000BB1BFD010DC0AA1FBB1FEE1FFF1FA21778
:10105000B307E407F50720F0A21BB30BE40BF50B75
:10106000661F771F881F991F1A9469F760957095FE
:10107000809590959B01AC01BD01CF0108950E9420
:101080004A08A59F900DB49F900DA49F800D911DBF
:1010900011240895A29FB001B39FC001A39F700DBA
:1010A000811D1124911DB29F700D811D1124911D70
:1010B0000895AA1BBB1B51E107C0AA1FBB1FA6179F
:1010C000B70710F0A61BB70B881F991F5A95A9F7F1
:1010D00080959095BC01CD010895052E97FB1EF4D7
:1010E00000940E94840857FD07D00E941D0807FC49
:1010F00003D04EF40C94840850954095309521957A
:101100003F4F4F4F5F4F0895909580957095619533
:101110007F4F8F4F9F4F0895B7FF0C943F080E9459
:101120003F08821B930B0895EE0FFF1F0590F4916B
:08113000E02D0994F894FFCFB3
:10113800000000030001020000010100000000009F
:101148000000000000000000000000000000000097
:10115800000000000000000000050400050602046D
:101168000103000100010200010203040502030358
:10117800050406050406070307000102020300012F
:101188000706020200050201050004010104040427
:10119800030303030303000002000003010100002E
:1011A8000102020202050505050305201001204081
:1011B80004100208010201020401020408102004BC
:1011C800080820104020104080088001020404080C
:1011D800010280400000000043027B01A801940244
:1011E800D901B701CB0103044A03E501B602564D04
:1011F8004450565F317C315F564D4450560A005674
:101208004D4450525F00564D4450455F003A323AC3
:0D121800007C005F564D445045000D0A005B
:041225000024F400AD
:0400000300000200F7
:100000001124669A26E030E408C000000197E9F761
:100010008DB183278DB9215019F081E091E7F6CF9A
:1000200080911F138B3E69F48FEF80931F138DE92E
:1000300093E084BF909300108091021081FDFCCF6B
:1000400006C082E080930110E0E0F1E0099580ECC9
:1000500080930608A09123110A2E000CBB0BBC5FF5
:100060002CE530E00E9476007E5F8F4F9F4F2AE0A4
:1000700095958795779567952A95D1F760930808A8
:10008000709309088091E20581608093E205049AEB
:10009000E0E0F2E42DE933E040E41EC08091040882
:1000A00087FFFCCF80910008E11552E4F50711F4B9
:1000B000882391F0809302088193CF018F7799274D
:1000C000892B51F424BF309300108091021080FDE1
:1000D000FCCF8DB184278DB9CF0190548115904C00
:1000E000E8F288ED91E084BF909341000E947D008A
:1000F000B7FF0895821B930B0895A29FB001B39F91
:10010000C001A39F700D811D1124911DB29F700D20
:08011000811D1124911D0895C9
:02000004008278
:00000001FF